{
  "address": "0x93FB733ea2625D2D74569Ed6dF2Ce98467FEd250",
  "abi": [
    {
      "inputs": [],
      "stateMutability": "nonpayable",
      "type": "constructor"
    },
    {
      "anonymous": false,
      "inputs": [
        {
          "indexed": true,
          "internalType": "uint256",
          "name": "id",
          "type": "uint256"
        },
        {
          "indexed": true,
          "internalType": "address",
          "name": "taker",
          "type": "address"
        }
      ],
      "name": "QuoteAccepted",
      "type": "event"
    },
    {
      "anonymous": false,
      "inputs": [
        {
          "indexed": true,
          "internalType": "uint256",
          "name": "id",
          "type": "uint256"
        },
        {
          "indexed": true,
          "internalType": "address",
          "name": "maker",
          "type": "address"
        },
        {
          "indexed": false,
          "internalType": "address",
          "name": "tokenIn",
          "type": "address"
        },
        {
          "indexed": false,
          "internalType": "address",
          "name": "tokenOut",
          "type": "address"
        },
        {
          "indexed": false,
          "internalType": "uint256",
          "name": "amountIn",
          "type": "uint256"
        },
        {
          "indexed": false,
          "internalType": "uint256",
          "name": "amountOut",
          "type": "uint256"
        },
        {
          "indexed": false,
          "internalType": "uint256",
          "name": "expiry",
          "type": "uint256"
        }
      ],
      "name": "QuoteCreated",
      "type": "event"
    },
    {
      "inputs": [
        {
          "internalType": "uint256",
          "name": "quoteId",
          "type": "uint256"
        }
      ],
      "name": "acceptQuote",
      "outputs": [],
      "stateMutability": "nonpayable",
      "type": "function"
    },
    {
      "inputs": [
        {
          "internalType": "address",
          "name": "tokenIn",
          "type": "address"
        },
        {
          "internalType": "address",
          "name": "tokenOut",
          "type": "address"
        },
        {
          "internalType": "uint256",
          "name": "amountIn",
          "type": "uint256"
        },
        {
          "internalType": "uint256",
          "name": "amountOut",
          "type": "uint256"
        },
        {
          "internalType": "uint256",
          "name": "duration",
          "type": "uint256"
        }
      ],
      "name": "createQuote",
      "outputs": [
        {
          "internalType": "uint256",
          "name": "",
          "type": "uint256"
        }
      ],
      "stateMutability": "nonpayable",
      "type": "function"
    },
    {
      "inputs": [],
      "name": "getLatestPrice",
      "outputs": [
        {
          "internalType": "int256",
          "name": "",
          "type": "int256"
        }
      ],
      "stateMutability": "view",
      "type": "function"
    },
    {
      "inputs": [
        {
          "internalType": "uint256",
          "name": "",
          "type": "uint256"
        }
      ],
      "name": "quotes",
      "outputs": [
        {
          "internalType": "uint256",
          "name": "id",
          "type": "uint256"
        },
        {
          "internalType": "address",
          "name": "maker",
          "type": "address"
        },
        {
          "internalType": "address",
          "name": "taker",
          "type": "address"
        },
        {
          "internalType": "address",
          "name": "tokenIn",
          "type": "address"
        },
        {
          "internalType": "address",
          "name": "tokenOut",
          "type": "address"
        },
        {
          "internalType": "uint256",
          "name": "amountIn",
          "type": "uint256"
        },
        {
          "internalType": "uint256",
          "name": "amountOut",
          "type": "uint256"
        },
        {
          "internalType": "uint256",
          "name": "expiry",
          "type": "uint256"
        },
        {
          "internalType": "bool",
          "name": "isActive",
          "type": "bool"
        }
      ],
      "stateMutability": "view",
      "type": "function"
    }
  ],
  "transactionHash": "0x8abad6209b123253dc93330293f4d0fdb81384839375cc3347e2fe2ae2139589",
  "args": [],
  "numDeployments": 1,
  "solcInputHash": "2831fa1d688dc9e6f2c2edaf540c9196",
  "bytecode": "0x608060405234801561001057600080fd5b50600160008190555060006002819055507359f1ec1f10bd7ed9b938431086bc1d9e233ecf41600160006101000a81548173ffffffffffffffffffffffffffffffffffffffff021916908373ffffffffffffffffffffffffffffffffffffffff160217905550611329806100856000396000f3fe608060405234801561001057600080fd5b506004361061004c5760003560e01c80633d897857146100515780635d7ffe7b146100815780638e15f4731461009d578063a61cf0d4146100bb575b600080fd5b61006b60048036038101906100669190610b43565b6100f3565b6040516100789190610bcd565b60405180910390f35b61009b60048036038101906100969190610be8565b61048a565b005b6100a56107d0565b6040516100b29190610c2e565b60405180910390f35b6100d560048036038101906100d09190610be8565b61087f565b6040516100ea99989796959493929190610c73565b60405180910390f35b60008082426101029190610d2f565b9050600060026000815461011590610d63565b91905081905590507359f1ec1f10bd7ed9b938431086bc1d9e233ecf4173ffffffffffffffffffffffffffffffffffffffff168873ffffffffffffffffffffffffffffffffffffffff1614806101aa57507359f1ec1f10bd7ed9b938431086bc1d9e233ecf4173ffffffffffffffffffffffffffffffffffffffff168773ffffffffffffffffffffffffffffffffffffffff16145b156101f9576101b9868661095a565b6101f8576040517f08c379a00000000000000000000000000000000000000000000000000000000081526004016101ef90610e2e565b60405180910390fd5b5b6040518061012001604052808281526020013373ffffffffffffffffffffffffffffffffffffffff168152602001600073ffffffffffffffffffffffffffffffffffffffff1681526020018973ffffffffffffffffffffffffffffffffffffffff1681526020018873ffffffffffffffffffffffffffffffffffffffff16815260200187815260200186815260200183815260200160011515815250600360008381526020019081526020016000206000820151816000015560208201518160010160006101000a81548173ffffffffffffffffffffffffffffffffffffffff021916908373ffffffffffffffffffffffffffffffffffffffff16021790555060408201518160020160006101000a81548173ffffffffffffffffffffffffffffffffffffffff021916908373ffffffffffffffffffffffffffffffffffffffff16021790555060608201518160030160006101000a81548173ffffffffffffffffffffffffffffffffffffffff021916908373ffffffffffffffffffffffffffffffffffffffff16021790555060808201518160040160006101000a81548173ffffffffffffffffffffffffffffffffffffffff021916908373ffffffffffffffffffffffffffffffffffffffff16021790555060a0820151816005015560c0820151816006015560e082015181600701556101008201518160080160006101000a81548160ff02191690831515021790555090505061042433600461098e90919063ffffffff16565b503373ffffffffffffffffffffffffffffffffffffffff16817f5ae15b277ca292ee4bf1222800a3dec7a3f22e68b7f806e375b0feb584adc0e78a8a8a8a88604051610474959493929190610e4e565b60405180910390a3809250505095945050505050565b6104926109be565b60006003600083815260200190815260200160002090508060080160009054906101000a900460ff1680156104cb575080600701544211155b61050a576040517f08c379a000000000000000000000000000000000000000000000000000000000815260040161050190610f13565b60405180910390fd5b8060030160009054906101000a900473ffffffffffffffffffffffffffffffffffffffff1673ffffffffffffffffffffffffffffffffffffffff166323b872dd338360010160009054906101000a900473ffffffffffffffffffffffffffffffffffffffff1684600501546040518463ffffffff1660e01b815260040161059393929190610f33565b6020604051808303816000875af11580156105b2573d6000803e3d6000fd5b505050506040513d601f19601f820116820180604052508101906105d69190610f96565b610615576040517f08c379a000000000000000000000000000000000000000000000000000000000815260040161060c90611035565b60405180910390fd5b8060040160009054906101000a900473ffffffffffffffffffffffffffffffffffffffff1673ffffffffffffffffffffffffffffffffffffffff166323b872dd8260010160009054906101000a900473ffffffffffffffffffffffffffffffffffffffff163384600601546040518463ffffffff1660e01b815260040161069e93929190610f33565b6020604051808303816000875af11580156106bd573d6000803e3d6000fd5b505050506040513d601f19601f820116820180604052508101906106e19190610f96565b610720576040517f08c379a0000000000000000000000000000000000000000000000000000000008152600401610717906110c7565b60405180910390fd5b60008160080160006101000a81548160ff021916908315150217905550338160020160006101000a81548173ffffffffffffffffffffffffffffffffffffffff021916908373ffffffffffffffffffffffffffffffffffffffff1602179055503373ffffffffffffffffffffffffffffffffffffffff16827fe97ff7c446cbe316d67f8137d3dbed3d71688a19d65583096d527095403bd41d60405160405180910390a3506107cd610a0d565b50565b600080600080600080600160009054906101000a900473ffffffffffffffffffffffffffffffffffffffff1673ffffffffffffffffffffffffffffffffffffffff1663feaf968c6040518163ffffffff1660e01b815260040160a060405180830381865afa158015610846573d6000803e3d6000fd5b505050506040513d601f19601f8201168201806040525081019061086a919061116a565b94509450945094509450839550505050505090565b60036020528060005260406000206000915090508060000154908060010160009054906101000a900473ffffffffffffffffffffffffffffffffffffffff16908060020160009054906101000a900473ffffffffffffffffffffffffffffffffffffffff16908060030160009054906101000a900473ffffffffffffffffffffffffffffffffffffffff16908060040160009054906101000a900473ffffffffffffffffffffffffffffffffffffffff16908060050154908060060154908060070154908060080160009054906101000a900460ff16905089565b6000806109656107d0565b90506305f5e100818561097891906111e5565b6109829190611256565b83101591505092915050565b60006109b6836000018373ffffffffffffffffffffffffffffffffffffffff1660001b610a17565b905092915050565b600260005403610a03576040517f08c379a00000000000000000000000000000000000000000000000000000000081526004016109fa906112d3565b60405180910390fd5b6002600081905550565b6001600081905550565b6000610a238383610a87565b610a7c578260000182908060018154018082558091505060019003906000526020600020016000909190919091505582600001805490508360010160008481526020019081526020016000208190555060019050610a81565b600090505b92915050565b600080836001016000848152602001908152602001600020541415905092915050565b600080fd5b600073ffffffffffffffffffffffffffffffffffffffff82169050919050565b6000610ada82610aaf565b9050919050565b610aea81610acf565b8114610af557600080fd5b50565b600081359050610b0781610ae1565b92915050565b6000819050919050565b610b2081610b0d565b8114610b2b57600080fd5b50565b600081359050610b3d81610b17565b92915050565b600080600080600060a08688031215610b5f57610b5e610aaa565b5b6000610b6d88828901610af8565b9550506020610b7e88828901610af8565b9450506040610b8f88828901610b2e565b9350506060610ba088828901610b2e565b9250506080610bb188828901610b2e565b9150509295509295909350565b610bc781610b0d565b82525050565b6000602082019050610be26000830184610bbe565b92915050565b600060208284031215610bfe57610bfd610aaa565b5b6000610c0c84828501610b2e565b91505092915050565b6000819050919050565b610c2881610c15565b82525050565b6000602082019050610c436000830184610c1f565b92915050565b610c5281610acf565b82525050565b60008115159050919050565b610c6d81610c58565b82525050565b600061012082019050610c89600083018c610bbe565b610c96602083018b610c49565b610ca3604083018a610c49565b610cb06060830189610c49565b610cbd6080830188610c49565b610cca60a0830187610bbe565b610cd760c0830186610bbe565b610ce460e0830185610bbe565b610cf2610100830184610c64565b9a9950505050505050505050565b7f4e487b7100000000000000000000000000000000000000000000000000000000600052601160045260246000fd5b6000610d3a82610b0d565b9150610d4583610b0d565b9250828201905080821115610d5d57610d5c610d00565b5b92915050565b6000610d6e82610b0d565b91507fffffffffffffffffffffffffffffffffffffffffffffffffffffffffffffffff8203610da057610d9f610d00565b5b600182019050919050565b600082825260208201905092915050565b7f5072696365206e6f742077697468696e2061636365707461626c652072616e6760008201527f6500000000000000000000000000000000000000000000000000000000000000602082015250565b6000610e18602183610dab565b9150610e2382610dbc565b604082019050919050565b60006020820190508181036000830152610e4781610e0b565b9050919050565b600060a082019050610e636000830188610c49565b610e706020830187610c49565b610e7d6040830186610bbe565b610e8a6060830185610bbe565b610e976080830184610bbe565b9695505050505050565b7f51756f7465206973206e6f7420616374697665206f722068617320657870697260008201527f6564000000000000000000000000000000000000000000000000000000000000602082015250565b6000610efd602283610dab565b9150610f0882610ea1565b604082019050919050565b60006020820190508181036000830152610f2c81610ef0565b9050919050565b6000606082019050610f486000830186610c49565b610f556020830185610c49565b610f626040830184610bbe565b949350505050565b610f7381610c58565b8114610f7e57600080fd5b50565b600081519050610f9081610f6a565b92915050565b600060208284031215610fac57610fab610aaa565b5b6000610fba84828501610f81565b91505092915050565b7f4661696c656420746f207472616e7366657220746f6b656e7320746f206d616b60008201527f6572000000000000000000000000000000000000000000000000000000000000602082015250565b600061101f602283610dab565b915061102a82610fc3565b604082019050919050565b6000602082019050818103600083015261104e81611012565b9050919050565b7f4661696c656420746f207472616e7366657220746f6b656e732066726f6d206d60008201527f616b657200000000000000000000000000000000000000000000000000000000602082015250565b60006110b1602483610dab565b91506110bc82611055565b604082019050919050565b600060208201905081810360008301526110e0816110a4565b9050919050565b600069ffffffffffffffffffff82169050919050565b611106816110e7565b811461111157600080fd5b50565b600081519050611123816110fd565b92915050565b61113281610c15565b811461113d57600080fd5b50565b60008151905061114f81611129565b92915050565b60008151905061116481610b17565b92915050565b600080600080600060a0868803121561118657611185610aaa565b5b600061119488828901611114565b95505060206111a588828901611140565b94505060406111b688828901611155565b93505060606111c788828901611155565b92505060806111d888828901611114565b9150509295509295909350565b60006111f082610b0d565b91506111fb83610b0d565b925082820261120981610b0d565b915082820484148315176112205761121f610d00565b5b5092915050565b7f4e487b7100000000000000000000000000000000000000000000000000000000600052601260045260246000fd5b600061126182610b0d565b915061126c83610b0d565b92508261127c5761127b611227565b5b828204905092915050565b7f5265656e7472616e637947756172643a207265656e7472616e742063616c6c00600082015250565b60006112bd601f83610dab565b91506112c882611287565b602082019050919050565b600060208201905081810360008301526112ec816112b0565b905091905056fea2646970667358221220edfeb7e52f95dd65d46578ded089aeda5dfb406785ed0bb4ff6073ecd9bd448d64736f6c63430008110033",
  "devdoc": {
    "kind": "dev",
    "methods": {},
    "version": 1
  },
  "userdoc": {
    "kind": "user",
    "methods": {},
    "version": 1
  },
  "storageLayout": {
    "storage": [
      {
        "astId": 10,
        "contract": "contracts/RollSwap.sol:RollSwap",
        "label": "_status",
        "offset": 0,
        "slot": "0",
        "type": "t_uint256"
      },
      {
        "astId": 813,
        "contract": "contracts/RollSwap.sol:RollSwap",
        "label": "priceFeed",
        "offset": 0,
        "slot": "1",
        "type": "t_contract(AggregatorV3Interface)804"
      },
      {
        "astId": 834,
        "contract": "contracts/RollSwap.sol:RollSwap",
        "label": "_quoteIdCounter",
        "offset": 0,
        "slot": "2",
        "type": "t_uint256"
      },
      {
        "astId": 839,
        "contract": "contracts/RollSwap.sol:RollSwap",
        "label": "quotes",
        "offset": 0,
        "slot": "3",
        "type": "t_mapping(t_uint256,t_struct(Quote)832_storage)"
      },
      {
        "astId": 842,
        "contract": "contracts/RollSwap.sol:RollSwap",
        "label": "makers",
        "offset": 0,
        "slot": "4",
        "type": "t_struct(AddressSet)468_storage"
      }
    ],
    "types": {
      "t_address": {
        "encoding": "inplace",
        "label": "address",
        "numberOfBytes": "20"
      },
      "t_array(t_bytes32)dyn_storage": {
        "base": "t_bytes32",
        "encoding": "dynamic_array",
        "label": "bytes32[]",
        "numberOfBytes": "32"
      },
      "t_bool": {
        "encoding": "inplace",
        "label": "bool",
        "numberOfBytes": "1"
      },
      "t_bytes32": {
        "encoding": "inplace",
        "label": "bytes32",
        "numberOfBytes": "32"
      },
      "t_contract(AggregatorV3Interface)804": {
        "encoding": "inplace",
        "label": "contract AggregatorV3Interface",
        "numberOfBytes": "20"
      },
      "t_mapping(t_bytes32,t_uint256)": {
        "encoding": "mapping",
        "key": "t_bytes32",
        "label": "mapping(bytes32 => uint256)",
        "numberOfBytes": "32",
        "value": "t_uint256"
      },
      "t_mapping(t_uint256,t_struct(Quote)832_storage)": {
        "encoding": "mapping",
        "key": "t_uint256",
        "label": "mapping(uint256 => struct RollSwap.Quote)",
        "numberOfBytes": "32",
        "value": "t_struct(Quote)832_storage"
      },
      "t_struct(AddressSet)468_storage": {
        "encoding": "inplace",
        "label": "struct EnumerableSet.AddressSet",
        "members": [
          {
            "astId": 467,
            "contract": "contracts/RollSwap.sol:RollSwap",
            "label": "_inner",
            "offset": 0,
            "slot": "0",
            "type": "t_struct(Set)153_storage"
          }
        ],
        "numberOfBytes": "64"
      },
      "t_struct(Quote)832_storage": {
        "encoding": "inplace",
        "label": "struct RollSwap.Quote",
        "members": [
          {
            "astId": 815,
            "contract": "contracts/RollSwap.sol:RollSwap",
            "label": "id",
            "offset": 0,
            "slot": "0",
            "type": "t_uint256"
          },
          {
            "astId": 817,
            "contract": "contracts/RollSwap.sol:RollSwap",
            "label": "maker",
            "offset": 0,
            "slot": "1",
            "type": "t_address"
          },
          {
            "astId": 819,
            "contract": "contracts/RollSwap.sol:RollSwap",
            "label": "taker",
            "offset": 0,
            "slot": "2",
            "type": "t_address"
          },
          {
            "astId": 821,
            "contract": "contracts/RollSwap.sol:RollSwap",
            "label": "tokenIn",
            "offset": 0,
            "slot": "3",
            "type": "t_address"
          },
          {
            "astId": 823,
            "contract": "contracts/RollSwap.sol:RollSwap",
            "label": "tokenOut",
            "offset": 0,
            "slot": "4",
            "type": "t_address"
          },
          {
            "astId": 825,
            "contract": "contracts/RollSwap.sol:RollSwap",
            "label": "amountIn",
            "offset": 0,
            "slot": "5",
            "type": "t_uint256"
          },
          {
            "astId": 827,
            "contract": "contracts/RollSwap.sol:RollSwap",
            "label": "amountOut",
            "offset": 0,
            "slot": "6",
            "type": "t_uint256"
          },
          {
            "astId": 829,
            "contract": "contracts/RollSwap.sol:RollSwap",
            "label": "expiry",
            "offset": 0,
            "slot": "7",
            "type": "t_uint256"
          },
          {
            "astId": 831,
            "contract": "contracts/RollSwap.sol:RollSwap",
            "label": "isActive",
            "offset": 0,
            "slot": "8",
            "type": "t_bool"
          }
        ],
        "numberOfBytes": "288"
      },
      "t_struct(Set)153_storage": {
        "encoding": "inplace",
        "label": "struct EnumerableSet.Set",
        "members": [
          {
            "astId": 148,
            "contract": "contracts/RollSwap.sol:RollSwap",
            "label": "_values",
            "offset": 0,
            "slot": "0",
            "type": "t_array(t_bytes32)dyn_storage"
          },
          {
            "astId": 152,
            "contract": "contracts/RollSwap.sol:RollSwap",
            "label": "_indexes",
            "offset": 0,
            "slot": "1",
            "type": "t_mapping(t_bytes32,t_uint256)"
          }
        ],
        "numberOfBytes": "64"
      },
      "t_uint256": {
        "encoding": "inplace",
        "label": "uint256",
        "numberOfBytes": "32"
      }
    }
  }
}